:020000040800F2
:100000009006002005010008C51D0008651A0008BB
:10001000C11D0008710100082D2500080000000026
:10002000000000000000000000000000F51D0008B6
:10003000DD01000800000000C91D0008F71D0008D0
:100040001F0100081F0100081F0100081F01000810
:100050001F0100081F0100081F0100081F01000800
:100060001F0100081F0100081F0100081F010008F0
:100070001F0100081F010008750100088501000824
:100080001F0100081F0100081F0100081F010008D0
:100090001F0100081F0100081F0100081F010008C0
:1000A0001F0100081F0100081F0100081F010008B0
:1000B0001F0100081F0100081F0100081F010008A0
:1000C0001F0100081F0100081F0100081F01000890
:1000D0001F010008C92400081F0100081F010008B3
:1000E0001F0100081F0100081F010008DFF810D0E1
:1000F00000F02CF80048004789250008AFF3008085
:10010000900600200648804706480047FEE7FEE7C5
:10011000FEE7FEE7FEE7FEE7FEE7FEE7FEE7FEE7B7
:10012000651E0008ED000008D2B201E000F8012BC6
:10013000491EFBD270470022F6E710B513460A4667
:1001400004461946FFF7F0FF204610BD064C074D48
:1001500006E0E06840F0010394E807009847103497
:10016000AC42F6D3FFF7C6FF6426000884260008D9
:1001700000BFFEE710B5024800F0B8F810BD00005F
:100180004802002010B5024800F0B0F810BD000091
:100190000402002030B590F840500124AC40C56BFB
:1001A0006C60046863604468102C04D10468A26029
:1001B0000468E16003E00468A1600468E26030BDA7
:1001C00070B504460D462A462146034801F0FAFB65
:1001D00008B100F004F870BDC0010020704772B68D
:1001E00000BFFEE70146002291F82100022808D056
:1001F0000420886300BF002081F8200000BF012098
:1002000070470868006820F00E000B6818600868E6
:10021000006820F001000B68186091F84030012060
:100220009840CB6B5860012081F8210000BF00206E
:1002300081F8200000BF1046E2E7000070B50446D8
:10024000002594F82100022803D00420A063012592
:1002500048E02068006820F00E00216808602068EF
:10026000006820F00100216808601F49206888426A
:1002700001D1012026E01C4914312068884201D1B7
:1002800010201FE0184928312068884201D18015CC
:1002900018E015493C312068884201D1801411E0F2
:1002A000114950312068884202D14FF4803009E072
:1002B0000D4964312068884202D14FF4801001E07A
:1002C0004FF08070084908394860012084F8210007
:1002D00000BF002084F8200000BF606B10B12046F2
:1002E000616B8847284670BD0800024070B504461F
:1002F000E06B05682068066894F840100420884088
:100300002840002846D006F00400002842D020688B
:10031000006800F0200028B92068006820F0040080
:100320002168086057492068884201D1042027E0ED
:10033000544914312068884201D1402020E05149BD
:1003400028312068884201D1001519E04D493C311F
:100350002068884202D14FF4804011E04949503171
:100360002068884202D14FF4802009E04549643179
:100370002068884202D14FF4800001E04FF0806095
:10038000404908394860E06A00287AD02046E16A8E
:10039000884776E094F84010022088402840A0B3B7
:1003A00006F0020088B32068006800F0200040B921
:1003B0002068006820F00A0021680860012084F8A5
:1003C000210030492068884201D1022028E02D49CF
:1003D00014312068884201D1202021E029492831A8
:1003E0002068884201D140151AE026493C31206836
:1003F000884202D14FF4005012E022495031206867
:10040000884203D14FF400300AE017E01D496431FF
:100410002068884202D14FF4001001E04FF00070D4
:1004200018490839486000BF002084F8200000BF48
:10043000A06A30B32046A16A884722E094F84010B1
:10044000082088402840E0B106F00800C8B12068C4
:10045000006820F00E002168086094F84010012028
:100460008840E16B48600120A06384F8210000BF50
:10047000002084F8200000BF206B10B12046216BC3
:10048000884770BD080002400146002209B90120DA
:100490007047164B0868C01A1423B0FBF3F08000B5
:1004A000086412480838C863022081F821000868EF
:1004B000026843F6F0708243D1E901031843CB6828
:1004C00018430B6918434B6918438B691843CB6970
:1004D000184302430868026000208863012081F805
:1004E0002100002081F8200000BFD1E70800024071
:1004F0002DE9F04104460D4616461F464FF0000810
:1005000000BF94F82000012802D10220BDE8F0814C
:10051000012084F8200000BF94F8210001282CD18C
:10052000022084F821000020A0632068006820F0E9
:100530000100216808603B46324629462046FFF705
:1005400029FEE06A30B12068006840F00E002168A2
:1005500008600BE02068006820F004002168086053
:100560002068006840F00A00216808602068006880
:1005700040F001002168086006E000BF002084F818
:10058000200000BF4FF002084046BFE72DE9F847C2
:100590000346002294466EE14FF0010808FA02F487
:1005A000D1F8008008EA0400A0427DD1DFF8DCA287
:1005B000D1F80480A8EB0A09D0453AD014DCB8F190
:1005C000030F50D009DCB8F1000F31D0B8F1010FA2
:1005D0001CD0B8F1020F49D120E0B8F1110F18D0AA
:1005E000B8F1120F42D11EE0B9F5881F25D006DC04
:1005F000B9F5803F20D0B9F5801F37D11AE0B9F5A1
:10060000001F18D0B9F5041F30D117E0D1F80CC085
:100610002DE0D1F80C8008F1040C28E0D1F80C8012
:1006200008F1080C23E0D1F80C8008F10C0C1EE056
:1006300000BF00BF00BF00BF00BF00BFD1F80880EF
:10064000B8F1000F02D14FF0040C0BE0D1F8088094
:10065000B8F1010F03D14FF0080C1C6102E04FF01C
:10066000080C5C6103E04FF0000C00E000BF00BF2D
:10067000FF2801D8984601E003F104084646FF2808
:1006800002D84FEA820803E0A2F108084FEA88087E
:100690004746D6F800804FF00F0909FA07F928EA13
:1006A00009080CFA07F900E088E048EA0908C6F8EA
:1006B0000080D1F8048008F08058B8F1805F7DD1C7
:1006C00000BFDFF8CC81D8F8188048F00108DFF8C7
:1006D000C091C9F81880C846D8F8188008F00108F9
:1006E000CDF8008000BF00BF4FEAB9384FEA920949
:1006F00058F829504FEA82784FEA18794FF00F08DE
:1007000008FA09F825EA0805DFF88881434502D18F
:100710004FF0000816E0DFF88081434502D14FF02A
:1007200001080FE0DFF87481434502D14FF0020861
:1007300008E0DFF86C81434502D14FF0030801E087
:100740004FF004084FEA82794FEA197908FA09F85C
:1007500048EA0505DFF84C814FEA920948F829502C
:10076000D1F8048008F48038B8F5803F0AD1DFF86A
:100770003881D8F8008048EA0008DFF82C91C9F8E1
:10078000008009E0DFF82081D8F8008028EA00081E
:10079000DFF81491C9F80080D1F8048008F400381B
:1007A000B8F5003F10D1DFF8008108F10408D8F84F
:1007B000008048EA0008DFF8F09000E05AE009F114
:1007C0000409C9F800800DE0DFF8DC8008F10408B6
:1007D000D8F8008028EA0008DFF8CC9009F1040975
:1007E000C9F80080D1F8048008F48018B8F5801F9B
:1007F0000ED1DFF8B48008F10808D8F8008048EA84
:100800000008DFF8A49009F10809C9F800800DE09C
:10081000DFF8948008F10808D8F8008028EA00087A
:10082000DFF8849009F10809C9F80080D1F8048044
:1008300008F40018B8F5001F0ED1DFF86C8008F13D
:100840000C08D8F8008048EA0008DFF85C9009F14D
:100850000C09C9F800800DE0DFF84C8008F10C08A5
:10086000D8F8008028EA0008DFF83C9009F10C096C
:10087000C9F80080521CD1F8008028FA02F8B8F1BB
:10088000000F7FF489AEBDE8F8870000000011106A
:100890000010024000080140000C0140001001401F
:1008A0000014014008000140000401400AB1016148
:1008B00001E00B04036170470148006870470000C5
:1008C00004000020034800680349097808440149EE
:1008D00008607047040000200C00002010B5084894
:1008E000006840F0100006490860032000F09EF800
:1008F0000F2000F007F800F02BF8002010BD0000DA
:100900000020024070B504460E4800784FF47A711A
:10091000B1FBF0F00C490968B1FBF0F5284600F096
:1009200001FC08B1012070BD102C07D20022214625
:10093000501E00F03DF80548046001E00120F2E798
:100940000020F0E70C00002010000020080000202C
:1009500008B500BF0D48806940F001000B4988616F
:100960000846806900F00100009000BF00BF00BF92
:100970000846C06940F08050C8610846C06900F070
:100980008050009000BF00BF08BD00000010024072
:1009900001460846002809DB00F01F0301229A40A7
:1009A00043099B0003F1E023C3F8002100BF704717
:1009B0002DE9F05F80460D461646002701F0B8FD90
:1009C000074639462A46334601F00700C0F1070AB8
:1009D000BAF1040F02D94FF0040A01E0C0F1070A8E
:1009E000D14600F1040ABAF1070F02D24FF0000A13
:1009F00001E0A0F1030AD4464FF0010A0AFA09FA0D
:100A0000AAF1010A0AEA020A0AFA0CFA4FF0010BEB
:100A10000BFA0CFBABF1010B0BEA030B4AEA0B04DC
:100A20002146404601F08CFDBDE8F09F00BF00F07C
:100A30000702064B19684FF6FF031940044B0B439E
:100A400043EA0221014B196000BF70470CED00E042
:100A50000000FA0570B504460D460CB9012070BDC2
:100A60005A48006800F00700A8420ED257480068B4
:100A700020F007002843554908600846006800F048
:100A80000700A84201D00120E9E7207800F0020029
:100A900002281DD1207800F00400042805D14C481C
:100AA000406840F4E0604A494860207800F008005F
:100AB000082805D14648406840F4605044494860E1
:100AC0004348406820F0F000A1680843404948606E
:100AD000207800F0010078B36068012806D13C4816
:100AE000006800F4003090B90120B8E7606802287F
:100AF00006D13748006800F0007040B90120AEE729
:100B00003348006800F0020008B90120A7E7304828
:100B1000406820F00300616808432D494860FFF7F2
:100B2000CBFE064609E0FFF7C7FE801B41F2883185
:100B3000884202D9032092E707E02548406800F088
:100B40000C006168B0EB810FEDD12048006800F027
:100B50000700A8420ED91D48006820F0070028436E
:100B60001A4908600846006800F00700A84201D052
:100B7000012074E7207800F00400042807D114480D
:100B8000406820F4E060E16808431149486020783B
:100B900000F00800082808D10D48406820F4605093
:100BA000216940EAC1000A49486000F03FF808495D
:100BB0004968C1F30311074A515CC84006490860FF
:100BC00006480068FFF79EFE002048E7002002402C
:100BD000001002404A2600081000002008000020F3
:100BE00001480068704700001000002000B5FFF7C2
:100BF000F7FF04494968C1F30221034A515CC84028
:100C000000BD0000001002405A26000800B5FFF7A2
:100C1000E7FF04494968C1F3C221034A515CC84057
:100C200000BD0000001002405A260008F0B585B053
:100C30000FF26C0C9CE8E01001A8A0E8E0101CA5E5
:100C40002D68009500210022002300240020194D6A
:100C5000696801F00C05F5B1042D02D0082D19D1F9
:100C600001E0154819E001ADC1F38346AC5D01F424
:100C7000803555B10F4D6D68C5F340451DF8052011
:100C80000D4D6543B5FBF2F302E00C4D04FB05F39B
:100C9000184602E000BF084800BF00BF05B0F0BD25
:100CA00002030405060708090A0B0C0D0E0F1010AD
:100CB000010200000010024000127A0000093D000D
:100CC000F8B504460CB90120F8BD207800F0010009
:100CD000002878D0F848406800F00C0004280CD0B8
:100CE000F548406800F00C00082811D1F24840682F
:100CF00000F48030B0F5803F0AD1EF48006800F47E
:100D0000003000285FD0606800285CD10120DBE75C
:100D100000BF6068B0F5803F06D1E748006840F446
:100D20008030E549086028E0606858B9E24800680A
:100D300020F48030E04908600846006820F48020F4
:100D400008601AE06068B0F5A02F0BD1DA4800689F
:100D500040F48020D84908600846006840F480309C
:100D600008600AE0D448006820F48030D249086066
:100D70000846006820F48020086000BF606888B1E1
:100D8000FFF79AFD054606E0FFF796FD401B642835
:100D900001D9032098E7C848006800F40030002813
:100DA000F2D010E0FFF788FD054606E0FFF784FD6E
:100DB000401B642801D9032086E7BF48006800F47F
:100DC00000300028F2D1207800F00200022857D12C
:100DD000B948406800F00C0050B1B748406800F0D6
:100DE0000C00082818D1B448406800F4803098B945
:100DF000B148006800F0020020B12069012801D04C
:100E0000012061E7AC48006820F0F800616940EA21
:100E1000C100A949086033E02069E8B10120A74971
:100E20000860FFF749FD054606E0FFF745FD401B5A
:100E3000022801D9032047E79F48006800F002001C
:100E40000028F2D09C48006820F0F800616940EA70
:100E5000C1009949086013E0002098490860FFF735
:100E60002BFD054606E0FFF727FD401B022801D9B0
:100E7000032029E79048006800F002000028F2D122
:100E8000207800F0080008282DD1A069B8B1012011
:100E90008B490860FFF710FD054606E0FFF70CFDE3
:100EA000401B022801D903200EE78348406A00F066
:100EB00002000028F2D0012000F088FF13E000209B
:100EC0007F490860FFF7F8FC054606E0FFF7F4FCF1
:100ED000401B022801D90320F6E67748406A00F05B
:100EE00002000028F2D1207800F00400042873D119
:100EF00000277148C06900F0805070B900BF6E488B
:100F0000C06940F080506C49C8610846C06900F073
:100F10008050009000BF00BF01276A48006800F4BD
:100F20008070B0B96748006840F480706549086017
:100F3000FFF7C2FC054606E0FFF7BEFC401B642835
:100F400001D90320C0E65F48006800F480700028E3
:100F5000F2D000BFE068012806D15748006A40F08F
:100F600001005549086227E0E06858B95248006A14
:100F700020F00100504908620846006A20F0040091
:100F8000086219E0E06805280BD14B48006A40F080
:100F90000400494908620846006A40F001000862FE
:100FA0000AE04548006A20F001004349086208460B
:100FB000006A20F00400086200BFE068A0B1FFF7FB
:100FC0007BFC054609E0FFF777FC401B41F28831C6
:100FD000884202D9032077E622E03748006A00F011
:100FE00002000028EFD012E0FFF766FC054608E09B
:100FF000FFF762FC401B41F28831884201D903208F
:1010000062E62D48006A00F002000028F0D1012FAE
:1010100005D12948C06920F080502749C86100BF28
:10102000E069C8B32448406800F00C00082860D08C
:10103000E069022848D1002020490866FFF73CFCFF
:10104000054606E0FFF738FC401B022801D90320C3
:101050003AE61948006800F000700028F2D1206AD2
:10106000B0F5803F07D11448406820F40030A168F3
:10107000084311494860D4E9080108430E4949680A
:1010800021F4741108430C49486001200B4908669B
:10109000FFF712FC054607E03DE0FFF70DFC401BA3
:1010A000022801D903200FE60348006800F0007011
:1010B0000028F2D02FE00000001002400000424261
:1010C0008004424200700040002014490866FFF787
:1010D000F3FB054606E0FFF7EFFB401B022801D9B2
:1010E0000320F1E50E48006800F000700028F2D1FE
:1010F00011E0E069012800D1E6E50948466806F4F8
:101100008031206A814204D106F47011606A814204
:1011100001D00120D8E50020D6E5000000004242C1
:101120000010024070B504462546681EB0F1807F6D
:1011300001D301200FE0681E4FF0E02148610F212C
:101140004FF0FF3001F0FCF900204FF0E021886102
:1011500007200861002070BD10B50346002200BFC3
:1011600093F83C00012801D1022010BD012083F832
:101170003C0000BF22F0FF00CC6840EA040222F4E9
:1011800040708C6840EA040222F480604C6840EAB7
:10119000040222F400600C6840EA040222F4805049
:1011A0000C6940EA040222F400504C6940EA04024F
:1011B00022F48040CC6940EA04021868426400BF0F
:1011C000002083F83C0000BF00BFCEE730B50246E8
:1011D0000B4600BF92F83C00012801D1022030BD2F
:1011E000012082F83C0000BF022082F83D00106818
:1011F00044681068816824F070041868044310681B
:101200004460104D1068A8420BD01068B0F1804FB8
:1012100007D00D4D1068A84203D00C4D1068A842AD
:1012200005D121F0800158680143106881600120D8
:1012300082F83D0000BF002082F83C0000BF00BFE4
:10124000CDE70000002C01400004004000080040F1
:1012500010B586B0044600200290039004900590DB
:1012600035492068884218D100BF3448806940F071
:101270000400324988610846806900F0040001904A
:1012800000BF00BF4FF470600290022003900590F1
:1012900002A92B48FFF77AF94CE02068B0F1804FA3
:1012A00017D100BF2548806940F0040023498861B8
:1012B0000846806900F00400019000BF00BF0F20C5
:1012C000029002200390059002A91D48FFF75EF9E5
:1012D00030E01C49206888422CD100BF1748806943
:1012E00040F00400154988610846806900F0040058
:1012F000019000BF00BF00BF0846806940F00800B1
:1013000088610846806900F00800019000BF00BFB6
:10131000C020029002200390059002A90848FFF720
:1013200035F90120029002200390059002A9064899
:10133000FFF72CF906B010BD002C01400010024050
:101340000008014000040040000C014070B5044654
:101350000D46164600BF94F83C00012801D102203A
:1013600070BD012084F83C0000BF36B1042E1BD0B4
:10137000082E31D00C2E5ED145E02946206800F0C1
:10138000ADFD2068806940F0080021688861206810
:10139000806920F0040021688861206880692969DB
:1013A00008432168886147E02946206800F0C6FDAF
:1013B0002068806940F40060216888612068806945
:1013C00020F480602168886120688069296940EA8A
:1013D0000120216888612FE02946206800F0E2FDA5
:1013E0002068C06940F008002168C8612068C069B1
:1013F00020F004002168C8612068C0692969084399
:101400002168C86118E02946206800F0FFFD2068C7
:10141000C06940F400602168C8612068C06920F498
:1014200080602168C8612068C069296940EA01209C
:101430002168C86100E000BF00BF00BF002084F841
:101440003C0000BF00BF8BE710B504460CB901207B
:1014500010BD94F83D0028B9002084F83C002046D7
:1014600000F026F8022084F83D00211D206800F0DD
:10147000FBFC012084F8460000BF84F83E000121F7
:101480003F200155402001554120015500BF00BFBC
:10149000012084F842004320015544200155452095
:1014A000015500BF012084F83D000020D0E7000076
:1014B00008B51B4A016891420DD100BF19498969DD
:1014C00041F40061174A91611146896901F4006194
:1014D000009100BF23E00168B1F1804F0DD100BF42
:1014E0001049C96941F001010E4AD1611146C9692B
:1014F00001F00101009100BF11E00B4A0168914227
:101500000DD100BF0749C96941F00201054AD16107
:101510001146C96901F00201009100BF00BF08BD7A
:10152000002C01400010024000040040704770B5DC
:101530000446002520684069C0F3C01594F83D00BA
:1015400021280ED16DB12068406920F0800021680B
:101550004861606B10B1606BFEF744FE204600F0FE
:101560003CFE20684069C0F3801594F83E002228B4
:101570000ED16DB12068406920F0400021684861BB
:10158000A06B10B1A06BFEF72DFE204600F0FAFD17
:10159000002070BD704700002DE9F84F0446206818
:1015A00005682068C668206847694FF00009CA4688
:1015B00005F00F09B9F1000F0AD105F0200038B18C
:1015C00006F0200020B1204600F011FEBDE8F88FA3
:1015D000B9F1000F71D007F0010018B906F490704E
:1015E00000286AD005F0010030B106F4807018B10F
:1015F000206C40F00100206405F0040030B107F0D9
:10160000010018B1206C40F00200206405F00200D7
:1016100030B107F0010018B1206C40F004002064E4
:1016200005F0080048B106F0200010B907F00100ED
:1016300018B1206C40F008002064206C68B305F0FD
:10164000200028B106F0200010B1204600F0CFFDA8
:1016500020684069C0F3801A206C00F0080010B9BF
:10166000BAF1000F22D0204600F08CFD20684069BE
:1016700000F04000B0B12068406920F040002168CF
:101680004861A06B50B15648A16B4863A06BFEF750
:10169000D5FD10B1A06B416B88470CE02046FFF7E9
:1016A00079FF08E02046FFF775FF04E02046FFF7CA
:1016B00071FF0020206489E7FFE7206B012878D1C3
:1016C00005F01000002874D006F01000002870D03B
:1016D00000BF0020009020680068009020684068EB
:1016E000009000BF00BF2068406900F04000C0B318
:1016F000A06B006840681FFA80F8B8F1000F2FD087
:10170000A08D40452CDDA4F82E80A06B8069202898
:101710001FD02068C06820F480702168C8602068ED
:10172000406920F00100216848612068406920F08C
:10173000400021684861202084F83E00002020639A
:101740002068C06820F010002168C860A06BFEF718
:1017500049FDA08DE28D801A81B22046FFF7E6FE9A
:1017600034E7FFE7A08DE18D401A1FFA80F8E08D85
:10177000E8B1B8F1000F1AD02068C06820F490706A
:101780002168C8602068406920F001002168486134
:10179000202084F83E00002020632068C06820F0EC
:1017A00010002168C86041462046FFF7BFFE0DE7E4
:1017B000FFE705F0800030B106F0800018B1204648
:1017C00000F052FE02E705F0400030B106F04000A4
:1017D00018B1204600F0F1FCF8E600BFF6E6000084
:1017E0005520000810B504460CB9012010BDA069B1
:1017F00000B100E000BF94F83D0028B9002084F853
:101800003C00204600F028F8242084F83D002068A1
:10181000C06820F400502168C860204600F05AFDDE
:101820002068006920F490402168086120684069C0
:1018300020F02A00216848612068C06840F4005008
:101840002168C86000202064202084F83D0084F8CE
:101850003E000020CAE7000010B586B00446002014
:1018600002900390049005903D492068884275D10C
:1018700000BF3C48806940F480403A49886108468E
:10188000806900F48040019000BF00BF00BF08469F
:10189000806940F0080088610846806900F008000F
:1018A000019000BF00BF402002900220039003205F
:1018B000059002A92C48FEF769FE802002900020C6
:1018C0000390049002A92848FEF760FE00BF274954
:1018D000486840F0E06040F00400486000BF2448E1
:1018E000244908600020486000212248816080214E
:1018F000C16000210161416181614FF48051C1618A
:10190000FEF7C2FD08B1FEF76AFC00BF1948A063EC
:10191000446200BF16481438174908601020486018
:101920000021154881608021C16000210161416171
:1019300081614FF48051C161FEF7A6FD08B1FEF749
:101940004EFC00BF0C486063446200BF0022114699
:101950002520FFF72DF82520FFF71AF806B010BD57
:101960000038014000100240000C0140000001401E
:1019700058000240040200204802002070B50446CE
:101980000D46164694F83E00202816D105B10EB932
:10199000012070BD00BF94F83C00012801D1022055
:1019A000F7E7012084F83C0000BF002020633246A6
:1019B0002946204600F00CFDEBE70220E9E77047DE
:1019C00070470000F7B50446154694F83D002028FE
:1019D0003DD1019800B10DB90120FEBD00BF94F8C2
:1019E0003C00012801D10220F7E7012084F83C00E7
:1019F00000BF01982062A584E58400202064212096
:101A000084F83D001348616B88621348616BC862BB
:101A10001248616B08630020616B486301AE236864
:101A20001A1D31682B46606BFEF762FD6FF04000B7
:101A30002168086000BF002084F83C0000BF2068D7
:101A4000406940F08000216848610020C5E702201D
:101A5000C3E7000041210008772100086920000841
:101A60007047704700BFFEE708B500BF0E484069E9
:101A700040F001000C4948610846406900F001004F
:101A8000009000BF00BF002211460E20FEF790FF1D
:101A90000E20FEF77DFF002211460F20FEF788FF83
:101AA0000F20FEF775FF08BD0010024000B585B09D
:101AB0000020019002900390049000BF1C488069B0
:101AC00040F020001A4988610846806900F0200033
:101AD000009000BF00BF00BF0846806940F00400CE
:101AE00088610846806900F00400009000BF00BFD4
:101AF00000BF0846806940F0080088610846806998
:101B000000F00800009000BF00BF0022202109481B
:101B1000FEF7CCFE202001900120029000200390CF
:101B20000220049001A90348FEF730FD05B000BD76
:101B300000100240000C014000B591B000200F9051
:101B400010901C2108A8FEF7F6FA20216846FEF73F
:101B5000F2FA2F482F4908604720486000212D489D
:101B6000816044F61F61C1600021016141618161B2
:101B7000FFF76AFC08B1FEF732FB00200F901090CF
:101B80000FA92448FFF722FB08B1FEF728FB6020CD
:101B90000890002009900A900B900C900D900E90E8
:101BA000002208A91B48FFF7D1FB08B1FEF717FB7D
:101BB000042208A91748FFF7C9FB08B1FEF70FFB7D
:101BC000082208A91348FFF7C1FB08B1FEF707FB7D
:101BD0000C2208A90F48FFF7B9FB08B1FEF7FFFA7E
:101BE0000020009001900290039004904FF4005068
:101BF00005900020079069460648FFF7ADFA08B146
:101C0000FEF7EDFA0348FFF723FB11B000BD00001B
:101C1000002C01408400002000B589B0002007900E
:101C200008901C216846FEF786FA4FF08040234951
:101C300008604720486000212048816044F61F6109
:101C4000C160002101618161FFF7FEFB08B1FEF771
:101C5000C6FA00200790089007A91848FFF7B6FABF
:101C600008B1FEF7BCFA60200090002001900290BD
:101C70000490002269461148FFF768FB08B1FEF79F
:101C8000AEFA042269460D48FFF760FB08B1FEF783
:101C9000A6FA082269460948FFF758FB08B1FEF783
:101CA0009EFA0C2269460548FFF750FB08B1FEF783
:101CB00096FA0248FFF7CCFA09B000BDCC0000202C
:101CC00000B589B00020079008901C216846FEF7F7
:101CD00032FA2048204908604720486000211E4809
:101CE000816044F61F61C160002101618161FFF7DD
:101CF000ABFB08B1FEF773FA00200790089007A924
:101D00001548FFF763FA08B1FEF769FA6020009002
:101D10000020019002900490002269460E48FFF7CF
:101D200015FB08B1FEF75BFA042269460A48FFF783
:101D30000DFB08B1FEF753FA082269460648FFF783
:101D400005FB08B1FEF74BFA0348FFF781FA09B02B
:101D500000BD0000000400401401002010B515482B
:101D6000154908604FF4E130486000211248816055
:101D7000C16001610C21416100218161C161FFF7F6
:101D800031FD08B1FEF72BFA0B480068C06840F03F
:101D9000200009490968C86007480068C06840F029
:101DA000100005490968C860642204490248FFF729
:101DB000E5FD10BD00380140C00100205C0100209D
:101DC00000BFFEE700BFFEE77047000008B5084906
:101DD0000968C9084FF47A72B1FBF2F141430091EE
:101DE00000BF00BF00994A1E00920029F9D108BD2A
:101DF00010000020704710B5FEF764FD10BD00B55F
:101E00008FB0282105A8FEF796F914216846FEF741
:101E100092F901200590000406900020079001200F
:101E2000099002200C90C1030D914FF4E0110E9126
:101E300005A8FEF745FF08B1FEF7D1F90F20009085
:101E400002200190002002904FF480600390002057
:101E5000049002216846FEF7FDFD08B1FEF7BFF9C8
:101E60000FB000BD7047000010B50268184B9842D3
:101E700008D0B0F1804F05D0164B984202D0164BD7
:101E8000984203D122F070024B681A43104B9842DB
:101E900008D0B0F1804F05D00E4B984202D00E4BC7
:101EA000984203D122F44072CB681A4322F0800397
:101EB0004C6943EA040202608B68C3620B68836268
:101EC000034B984201D10B6903630123436110BDA9
:101ED000002C0140000400400008004030B5056AB5
:101EE00025F001050562026A4368846924F07004E4
:101EF00024F003040D682C4322F002028D682A436B
:101F00000D4DA84206D100BF22F00802CD682A4339
:101F100022F00402084DA84207D123F4807323F471
:101F200000734D692B438D692B43436084614D6879
:101F30004563026230BD0000002C014030B5056AE7
:101F400025F010050562026A4368846924F4E044C0
:101F500024F440740D6844EA052422F020028D68C0
:101F600042EA05120E4DA84207D100BF22F08002BE
:101F7000CD6842EA051222F04002094DA84209D17B
:101F800023F4806323F400634D6943EA85038D697C
:101F900043EA8503436084614D688563026230BD16
:101FA000002C014030B5056A25F480750562026A8F
:101FB0004368C46924F0700424F003040D682C43C2
:101FC00022F400728D6842EA05220F4DA84207D123
:101FD00000BF22F40062CD6842EA052222F480624A
:101FE000094DA84209D123F4805323F400534D69CD
:101FF00043EA05138D6943EA05134360C4614D68E4
:10200000C563026230BD0000002C014030B5056A96
:1020100025F480550562036A4468C26922F4E042EF
:1020200022F440720D6842EA052223F400538D68C1
:1020300043EA0533064DA84204D124F480444D6997
:1020400044EA85144460C2614D680564036230BD92
:10205000002C014070B505466C6A0020E085E084E4
:102060002046FFF797FA70BD70B506460025746AE2
:1020700020684069C0F3C01594F83D00212805D1BF
:1020800025B10020E084204600F0A7F820684069D0
:10209000C0F3801594F83E00222805D125B1002018
:1020A000E085204600F06EF8206C40F010002064BF
:1020B0002046FFF76FFA70BD70B505466C6A286858
:1020C000006800F02000F8B90020E0852068C068B2
:1020D00020F480702168C8602068406920F0010009
:1020E000216848612068406920F04000216848610B
:1020F000202084F83E00206B012805D12068C068AC
:1021000020F010002168C860206B012804D1A18D47
:102110002046FFF70BFA02E02046FFF750FC70BDA7
:1021200070B505466C6A206B012805D1A08D410869
:102130002046FFF7FBF902E02046FFF741FC70BDA7
:1021400070B505466C6A2868006800F0200070B918
:102150000020E0842068406920F080002168486108
:102160002068C06840F040002168C86002E0204656
:10217000FFF776FC70BD70B50446656A2846FFF728
:1021800070FC70BD0168C96821F490710268D1606B
:102190000168496921F0010102685161016B01295F
:1021A00005D10168C96821F010010268D1602021C1
:1021B00080F83E1000210163704710B50446206886
:1021C000C06820F040002168C860202084F83D00ED
:1021D0002046FFF745FC002010BD0168C96821F0CA
:1021E000C0010268D160202180F83D107047F8B529
:1021F000044694F83E00222869D1A068B0F5805FBB
:102200000CD1206950B90025A66A20684068C0F347
:1022100008003080A06A801CA06215E0A56A002634
:10222000A068B0F5805F03D0A06828B9206918B90C
:1022300020684068287004E02068406800F07F0053
:102240002870A06A401CA062E08D401E80B2E0852C
:10225000A8BB2068C06820F020002168C860206802
:10226000C06820F480702168C8602068406920F050
:10227000010021684861202084F83E00206B01287D
:102280001ED1002020632068C06820F01000216863
:10229000C8602068006800F0100010280AD100BF54
:1022A000002000902068006800902068406800903E
:1022B00000BF00BFA18D2046FFF738F903E004E01E
:1022C0002046FFF77CFB0020F8BD0020FCE7022041
:1022D000FAE7000070B504462168096921F440510D
:1022E000E2681143226811612269A16811436269A1
:1022F00041EA02052168C96841F20C629143294311
:102300002268D1602168496921F44071A2691143B2
:10231000226851612D4A2168914202D1FEF776FC74
:1023200001E0FEF763FC00EBC00101EB0011626805
:102330009200B1FBF2F100EBC00202EB0012636805
:102340009B00B2FBF3F26423B2FBF3F202EBC20395
:1023500003EB0212A1EB8201322202EB0111642293
:10236000B1FBF2F101F0F00100EBC00202EB001250
:1023700063689B00B2FBF3F26423B2FBF3F201EB60
:10238000021200EBC00101EB001163689B00B1FB7E
:10239000F3F100EBC00303EB00136668B600B3FB78
:1023A000F6F36426B3FBF6F303EBC30606EB031365
:1023B000A1EB8301322303EB01116423B1FBF3F1A1
:1023C00001F00F0111442268916070BD0038014096
:1023D00077B581B0044615460298A062A585002015
:1023E0002064222084F83E001C48A16B88621C48AF
:1023F000A16BC8621B48A16B08630020A16B4863F6
:1024000002AE32682368191D2B46A06BFEF770F8E8
:1024100000BF00200090206800680090206840689D
:10242000009000BF00BF00BF002084F83C0000BF48
:102430002068C06840F480702168C86020684069E6
:1024400040F00100216848612068406940F0400088
:1024500021684861002004B070BD0000B920000868
:102460002121000869200008014691F83D0021283B
:1024700028D18868B0F5805F0BD1086948B90A6A2D
:102480001088C0F308000B685860086A801C086256
:1024900005E00B6A581C086218780B685860C88CF5
:1024A000401E80B2C88458B90868C06820F0800017
:1024B0000B68D8600868C06840F040000B68D860BE
:1024C000002070470220FCE738B50025134800685B
:1024D0000068C0F30015CDB100BF002000900F4888
:1024E0000068006800900D4800684068009000BFD8
:1024F00000BF0A48FFF71BF8094800684468C4F1A8
:102500006400084908700120074908700348FFF774
:1025100043F80248FFF740F838BD0000C001002032
:1025200004020020000000200100002000BFFEE7A0
:1025300002480068C0F30220704700000CED00E084
:1025400010B5002804DB0A07130E054A135406E0F1
:102550000A07140E034A00F00F031B1FD45410BDCA
:1025600000E400E018ED00E002E008C8121F08C116
:10257000002AFAD170477047002001E001C1121F04
:10258000002AFBD17047000008B500200123204A33
:1025900020490090204800F04FF8042002231C4AF4
:1025A0001C4900901D4800F047F808200423184AF1
:1025B000184900901A4800F03FF80C200823144AEC
:1025C00014490090174800F037F8FEF787F9FFF735
:1025D00016FCFFF76BFAFFF747FAFFF7BFFBFFF7B1
:1025E000ABFAFFF719FBFFF76BFB10E00E48007822
:1025F000012807D10D4801780D48FDF7E1FD0020C5
:102600000949087064220A490A48FFF7B7F9EDE75B
:1026100000080140CC000020140000203000002001
:102620004C00002068000020010000200000002075
:102630005C010020C001002030B5039C0160C26035
:1026400003614460CD68856030BD0000000000007B
:10265000000001020304060708090000000001024F
:10266000030400008426000800000020140000007D
:102670006825000898260008140000207C06000049
:102680007825000800000000000000001000000095
:08269000010000000024F40029
:04000005080000ED02
:00000001FF
